:0400000009EF01F013
:100008005D82FACF18F0FBCF19F0E9CF1AF0EACFEA
:100018001BF0E1CF1CF0E2CF1DF0D9CF1EF0DACFF4
:100028001FF0F3CF20F0F4CF21F0F6CF22F0F7CF76
:1000380023F0F8CF24F0F5CF25F05DC026F05EC0A0
:1000480027F05FC028F060C029F0F0B6F0A0ABD070
:10005800F090620E25EC09F02B6E2BA011D0439086
:1000680043BC439C000E0001926F000E916F43A2A7
:1000780007D0480E25EC09F02A6E2AB04384439233
:100088002BA68AD02D68000E2E6E070E2E6401D086
:1000980010D02E50500D8C0EF324D96E020EF42081
:1000A800DA6EDF50D8A403D02EC02DF002D02E2A4D
:1000B800ECD7080E2D606BD0040E036E730E3AEC6D
:1000C80009F02D50500D8C0EF324D96E020EF42039
:1000D800DA6E030E046E000E036EE3EC08F0020FF6
:1000E800DF6E2D50500D8C0EF324D96E020EF420C5
:1000F800DA6E4F0EDF6040D0438A010E2E6E1AD0A2
:100108002D50500D8C0E136E020E146EF3501326E4
:10011800F45014222E501324D96E000E1420DA6ED7
:10012800000E2E24036E046A030E0422E3EC08F08A
:10013800DF6E2E2A2E50136E146A2D50500D8C0E21
:10014800F324D96E020EF420DA6EDF50156E166AAB
:10015800020E1526000E16221350155C1650800A42
:10016800176E1450800A1758D8B0CAD7010E036EFC
:100178001B0E3AEC09F005D0010E036E1B0E3AEC8B
:1001880009F0000E036E730E3AEC09F005D0010E6B
:10019800036E1B0E3AEC09F02BA805D0800E036EF7
:1001A800590E3AEC09F09EB09DA007D09E904B2ABC
:1001B8004B50D8A402D000019A2B67EC09F029C053
:1001C80060F028C05FF027C05EF026C05DF025C053
:1001D800F5FF24C0F8FF23C0F7FF22C0F6FF21C0B7
:1001E800F4FF20C0F3FF1FC0DAFF1EC0D9FF1DC0F7
:1001F800E2FF1CC0E1FF1BC0EAFF1AC0E9FF19C0FB
:0E020800FBFF18C0FAFF5D92110073EF08F0C3
:100F000000C0030000A005000060090000E0100020
:100F100000E01F0000E03D0000E0790000E0F1008B
:100F200000E0E10100E0C10300E0810700E0010F03
:100F300000E0011E00443D1B000DB4150001000837
:100F400000400000020010008001000A006400E878
:100F5000031027010010000001001030313233343B
:100F60003536373839414243444546003031323313
:100F7000343536373839616263646566005258200B
:100F80004D657373616765733A2025336400545867
:100F9000204D657373616765733A2025336400796A
:090FA0006F6C6F6F6F6F6F000042
:100FAA004F504D5CD8A004D04E504C5CD8B01200C3
:100FBA0071B0FED74F504D5CD8B01AD04D50010DCC
:100FCA00820EF324D96E000EF420DA6EDF50756EAD
:100FDA004D2A4F504D18D8A412004E50D8A41200D2
:100FEA007184010E0E6E2C0E0D6E2DEC08F012009F
:100FFA004E504C5CD8B012004C50010D7B0EF324BD
:10100A00D96E010EF420DA6EDF50D8A40AD04C5003
:10101A00010D7B0EF324D96E010EF420DA6E200E38
:10102A00DF6E4C50010D7B0EF324D96E010EF420B5
:10103A00DA6EDF50756E4C2A4E504C18D8A4120046
:10104A007184010E0E6E2C0E0D6E2DEC08F012003E
:10105A00000E0F6E000E106E000E116E000E126E54
:10106A000DC001F00EC002F0036A046AA00E056EFC
:10107A000F0E066E000E076E000E086EB8EC08F032
:10108A0001C00FF002C010F003C011F004C012F04A
:10109A00560E0F26FF0E1022FF0E1122FF0E1222ED
:1010AA0012BE12001250111010100EE1C40E0F5C85
:1010BA00D8A0120009D000F0D90E0F26FF0E102278
:1010CA00FF0E1122FF0E122212BE12001250111030
:1010DA001010F1E10F04D8A01200EDD70E0EF66E33
:1010EA00130EF76E000EF86E00EEEAF010EE09F03D
:1010FA000900F5CFEEFFE550E150FAE1170EF66E62
:10110A00130EF76E000EF86E0900F5CF5BF00900BA
:10111A00F5CF5CF002EE8CF012EE80F0EE6AE5504C
:10112A00E150FCE1E250FAE102EE00F08C0EEE6AC8
:10113A00E806FDE101EE00F09C0EEE6AE806FDE12C
:10114A0000EE60F08A0EEE6AE806FDE100EE2FF08E
:10115A002C0EEE6AE806FDE15D905D92000EF86ED7
:10116A00000173EF09F0000E096E000E0A6E000E00
:10117A000B6E000E0C6E01A008D005500926065011
:10118A000A2207500B2208500C22D8900536063640
:10119A0007360836D890043203320232013201503F
:1011AA00021003100410D8A4E6D709C001F00AC03F
:1011BA0002F00BC003F00CC004F01200000EF0B6EF
:1011CA00010E086EF0968A9603C005F004C006F078
:1011DA00D89006320532D89006320532D8900632B7
:1011EA00053205507F0B80094EEC09F00338E846BA
:1011FA00E00BE00B4EEC09F082EC09F0076E8A86F0
:10120A0008B002D0F09601D0F086075012009CA2D6
:10121A0002D09C989C88AACFF4F00001F4517BEC90
:10122A0009F0080E0001F419D8B48DEC09F00D0E7E
:10123A000001F419D8A412000A0E7BEC09F012007E
:10124A00036E000EF0B6010E056EF0968A960350F4
:10125A004EEC09F082EC09F0046E8A8605B002D0E1
:10126A00F09601D0F08604501200046E000EF0B61B
:10127A00010E056EF0968A9604504EEC09F0035062
:10128A004EEC09F08A8605B002D0F09601D0F086BD
:10129A001200026E9E96C9CF01F0C69E02C0C9FF17
:1012AA00C6BEFBD79EA6FED79E961200949C958436
:1012BA007E96000E7D6E330EAB6E240EA86E900ED7
:1012CA009C6E1200A4AE1200A49ED5EC07F0000E8C
:1012DA000E6E050E0D6E2DEC08F012005BEC09F097
:1012EA009F0E7BEC09F00CEC09F0FFD70001F36FBD
:1012FA00A8A2FED7F3C0A9FF1200000E4EEC09F017
:0F130A00C9501200FF0311223344556611FF042E
:02131A001200BF
:08FFF800ACF5DDFFFFF9FFF19C
:00000001FF
